:020000040800F2
:10000000800600204501000801360008033600087C
:10001000073600080B3600080F3600080000000005
:10002000000000000000000000000000133600087F
:10003000153600080000000017360008CB3700080E
:100040005F0100085F0100085F0100085F01000810
:100050005F0100085F010008DD3700085F0100084C
:100060005F0100085F0100085F0100085F010008F0
:100070005F0100085F0100085F0100085F010008E0
:100080005F0100085F0100085F0100085F010008D0
:100090005F0100085F0100085F010008F7370008F2
:1000A0005F0100085F0100085F0100085F010008B0
:1000B00019360008813700085F0100085F01000859
:1000C0005F0100085F0100085F0100085F01000890
:1000D0005F010008A13700085F0100085F01000808
:1000E0005F0100085F0100085F0100085F01000870
:1000F0005F0100085F0100085F0100085F01000860
:100100005F0100080D3800085F0100085F0100086A
:100110005F0100085F0100085F0100085F0100083F
:100120005F0100085F0100085F0100085F0100082F
:10013000DFF80CD005F0D8FB004800476F3100080D
:10014000800600200648804706480047FEE7FEE795
:10015000FEE7FEE7FEE7FEE7FEE7FEE7FEE7FEE777
:1001600047020008310100080CB500200190009002
:100170006C48006840F480306A49086000BF6948F4
:10018000006800F4003000900198401C0190009835
:1001900018B90198B0F5A06FF1D16248006800F479
:1001A000003010B10120009001E000200090009884
:1001B000012843D15C48006840F010005A490860AB
:1001C0000846006820F0030008600846006840F018
:1001D0000200086053484068524948600846406839
:1001E00048600846406840F48060486008464068BF
:1001F00020F47C1048600846406840F4E8104860ED
:100200000846006840F08070086000BF45480068FC
:1002100000F000700028F9D04248406820F0030048
:10022000404948600846406840F00200486000BF0E
:100230003C48406800F00C000828F9D10CBD10B50E
:10024000FFF792FF10BD10B53648006840F001007E
:1002500034490860084640683449084031494860DC
:1002600008460068324908402E4908600846006880
:1002700020F4802008600846406820F4FE004860B2
:100280004FF41F008860FFF7DAFF4FF00060294944
:10029000086010BD10B5002100200022214B5B68D2
:1002A00003F00C0121B1042906D0082928D107E068
:1002B000214B224C236027E01F4B204C236023E07E
:1002C000184B5B6803F47010164B5B6803F48032C4
:1002D000022303EB904022B9194B4343174C236090
:1002E0000DE0104B5B6803F4003323B1144B434320
:1002F000124C236003E0104B4343104C236003E097
:100300000D4B0E4C236000BF00BF064B5B68C3F370
:1003100003130C4CE15C094B1B68CB40074C23607A
:1003200010BD000000100240002002400000FFF855
:10033000FFFFF6FE08ED00E000127A00000000204A
:1003400000093D000400002031490143314A116099
:10035000704770B5002100230F22C47804B32D4CE0
:10036000246804F4E064C4F5E064210AC1F10403E4
:10037000CA40447804FA03F1847814402143090107
:10038000254C0678A155047804F01F050124AC40E3
:1003900005786D11AD0005F1E025C5F8004109E0D3
:1003A000047804F01F050124AC401C4D067876113A
:1003B00045F8264070BD1A4A0A400243154B1B1FE0
:1003C0001A60704739B1134A121D12680243114B6B
:1003D0001B1D1A6006E00F4A121D126882430D4B66
:1003E0001B1D1A607047042808D14FF0E0210969ED
:1003F00041F004014FF0E022116107E04FF0E021ED
:10040000096921F004014FF0E022116170470000FA
:100410000000FA050CED00E000E400E080E100E0FF
:1004200080FFFF1F01684FF6FE721140016000213E
:10043000016041608160C1608D49884208D18C496A
:100440000839496841F00F01894A083A51608AE049
:1004500087491431884208D185490839496841F0F3
:10046000F001834A083A51607DE081492831884291
:1004700008D17F490839496841F470617C4A083ADB
:10048000516070E07A493C31884208D17849083996
:10049000496841F47041764A083A516063E0744912
:1004A0005031884208D172490839496841F47021B5
:1004B0006F4A083A516056E06D496431884208D16C
:1004C0006B490839496841F47001694A083A51603A
:1004D00049E067497831884208D165490839496857
:1004E00041F07061624A083A51603CE061498842DB
:1004F00006D1011F096841F00F01021F116032E0AF
:100500005C491431884208D15A49091F096841F0F1
:10051000F001584A121F116025E0564928318842DF
:1005200008D15449091F096841F47061514A121FEA
:10053000116018E04F493C31884208D14D49091FEC
:10054000096841F470414B4A121F11600BE04949A0
:100550005031884207D14749091F096841F4702189
:10056000444A121F1160704710B50022026847F616
:10057000F0739A430C6A8B6823430C6923434C69DC
:1005800023438C692343CC6923434C6A23438C6AFD
:1005900023431A430260CB6843600B6883604B6857
:1005A000C36010BD0021016041608160C1600161D4
:1005B00041618161C161016241628162704721B123
:1005C000026842F00102026004E002684FF6FE7326
:1005D0001A40026070471AB103680B43036002E0DF
:1005E00003688B4303607047416070470146486869
:1005F00080B2704701460020002201F080531BB1F9
:100600001C4B083B1A6802E0194B083B1A6802EAC7
:1006100001030BB1012000E00020704700F0805181
:1006200019B11449091F086002E0114908394860EE
:10063000704701460020002201F080531BB10D4B92
:10064000083B1A6802E00A4B083B1A6802EA0103F9
:100650000BB1012000E00020704700F0805119B17B
:100660000449091F086002E00149083948607047E1
:100670000800024008040240002044490860091DA7
:100680000860091D0860091D086041483F49143190
:100690000860704700213D498279002A3AD00A4615
:1006A000126803689A430B461A600A1D12680368B1
:1006B0009A430B1D1A60027911440A6803681A43B1
:1006C0000A60324A0832126803689A432F4B083393
:1006D0001A601A1D126803689A432C4B0C331A6077
:1006E0004279102A0ED11A1F126803681A43274B49
:1006F00008331A601A1D126803681A43234B0C331F
:100700001A600DE02149427911440A6803681A43CE
:100710000A6005E0027911440A6803689A430A6096
:1007200070470021016001710C214171002181712C
:1007300070471649103109680143144A103211609C
:10074000704701460020114A143212680A400AB16B
:10075000012000E0002070470C4914310860704708
:10076000014600200022094B1B6803EA0102074BE7
:1007700014331B680B4013B10AB1012000E00020C4
:1007800070470249143108607047000000040140BE
:10079000FFFF0F00016170472DE9F041024600257F
:1007A0000026002000230024002791F803C00CF04D
:1007B0000F0591F803C00CF0100CBCF1000F03D032
:1007C00091F802C04CEA050591F800C0BCF1000F99
:1007D00031D0146800202BE04FF0010C0CFA00F32C
:1007E000B1F800C00CEA03069E4220D183004FF00E
:1007F0000F0C0CFA03F7BC4305FA03FC4CEA0404A3
:1008000091F803C0BCF1280F06D14FF0010C0CFA8F
:1008100000FCC2F814C00AE091F803C0BCF1480F14
:1008200005D14FF0010C0CFA00FCC2F810C0401CBE
:100830000828D1D31460B1F800C0BCF1FF0F34DD3B
:10084000546800202EE000F1080C4FF0010808FA6F
:100850000CF3B1F800C00CEA03069E4221D18300DC
:100860004FF00F0C0CFA03F7BC4305FA03FC4CEAFB
:10087000040491F803C0BCF1280F05D100F1080C65
:1008800008FA0CF8C2F8148091F803C0BCF1480FC4
:1008900007D100F1080C4FF0010808FA0CF8C2F873
:1008A0001080401C0828CED35460BDE8F0812DE9AB
:1008B000F84305460F4614469846F848854201D14C
:1008C00004261CE0F648854201D1082617E0F548C9
:1008D000854201D1102612E0F348854201D120263D
:1008E0000DE0F248854201D1402608E0F0488542FB
:1008F00001D1802603E0EF48854200D18615012111
:10090000304600F0C5FBADF800708DF80340142CA4
:1009100005D0102C03D01C2C01D0182C01D18DF83F
:10092000028069462846FFF737FF142C05D0102CAB
:1009300003D01C2C01D0182C03D139462846FFF7D0
:1009400029FFBDE8F883C2684A40C260704730B5ED
:1009500000228B071C0F0F2303FA04F2D64B8C10D6
:1009600053F824309343D44C8D1044F8253023465B
:100970008C1053F824308C07240F00FA04F423431E
:10098000CD4C8D1044F8253030BD2DE9FF4706468B
:100990000C469146C148864203D104274FF0000817
:1009A00028E0BF48864203D108274FF0010821E024
:1009B000BC48864203D110274FF002081AE0BA481B
:1009C000864203D120274FF0030813E0B748864240
:1009D00003D140274FF004080CE0B548864203D10C
:1009E00080274FF0050805E0B248864202D18715FE
:1009F0004FF0060847F00100012100F049FB012CEF
:100A000006D106208DF8000000250120019094E019
:100A1000022C06D107208DF800000125022001904C
:100A20008BE0042C06D108208DF80000022504205C
:100A3000019082E0082C06D109208DF800000325E2
:100A40000820019079E0102C06D10A208DF80000D2
:100A500004251020019070E0202C06D117208DF87D
:100A6000000005252020019067E0402C06D11720CA
:100A70008DF800000625402001905EE0802C06D114
:100A800017208DF8000007258020019055E0B4F56F
:100A9000807F06D117208DF800000825680101909D
:100AA0004BE0B4F5007F07D117208DF80000092531
:100AB0004FF40070019040E0B4F5806F07D128201A
:100AC0008DF800000A254FF48060019035E0B4F500
:100AD000006F07D128208DF800000B254FF400602F
:100AE00001902AE0B4F5805F07D128208DF800003E
:100AF0000C254FF4805001901FE0B4F5005F07D142
:100B000028208DF800000D254FF40050019014E0CE
:100B1000B4F5804F07D128208DF800000E254FF442
:100B20008040019009E0B4F5004F06D128208DF8EF
:100B300000000F254FF4004001904FF4C060FFF714
:100B400003FC00208DF801008DF8020001208DF8D3
:100B500003006846FFF7FDFBADF80C4048208DF818
:100B60000F0003A94D48FFF717FE29464046FFF73F
:100B7000EEFEB9F1000F03D108208DF809000CE05A
:100B8000B9F1010F03D10C208DF8090005E0B9F18E
:100B9000020F02D110208DF8090000208DF8080006
:100BA00001208DF80A0001A8FFF774FDBDE8FF875A
:100BB00010B504463948844208D10121042000F0D0
:100BC00081FA0021042000F07DFA46E03448844296
:100BD00008D10121082000F075FA0021082000F05A
:100BE00071FA3AE02F48844208D10121102000F028
:100BF00069FA0021102000F065FA2EE02A488442AC
:100C000008D10121202000F05DFA0021202000F011
:100C100059FA22E02548844208D10121402000F001
:100C200051FA0021402000F04DFA16E0204884429D
:100C300008D10121802000F045FA0021802000F039
:100C400041FA0AE01B48844207D10121801500F0D7
:100C500039FA0021A01500F035FA10BD10B50121B8
:100C6000084600F02FFA0021012000F02BFA10BDF9
:100C70004FF6FF710180022181700421C17070471D
:100C80000246002093680B400BB1012000E00020D9
:100C900070470146886880B2704700000008014034
:100CA000000C0140001001400014014000180140F8
:100CB000001C0140002001400800014002460020C5
:100CC000D3680B400BB1012000E0002070470146C3
:100CD000C86880B27047416170470AB1016100E0A5
:100CE00041617047C16070474FF480320A438261AE
:100CF00081618261826982697047024600202B4BC4
:100D000018684FF68073184040EA02100843274BDA
:100D1000186070472649C8617047F0B50A4600233D
:100D200000240021002500F00046B6F1004F02D15A
:100D30001E4EF16901E01D4E7168C0F3034583B298
:100D400000F44016B6F5401F08D121F07061174E2F
:100D5000766826F07066154F7E6012E000F480160B
:100D6000B6F5801F06D1032606FA05F4A14341F02B
:100D7000706106E0460D360103FA06F6B14341F014
:100D8000706122B1460D360103FA06F6314300F0D8
:100D90000046B6F1004F02D1044EF16101E0034E6E
:100DA0007160F0BD0249DC3108607047000001400D
:100DB00000002042DF48006840F00100DD49086083
:100DC00008464068DC490840DA494860084600683F
:100DD000DA490840D74908600846006820F48020B6
:100DE00008600846406820F4FE0048604FF41F0089
:100DF00088607047CF49096821F48031CD4A11607D
:100E00001146096821F480211160B0F5803F03D0BC
:100E1000B0F5802F0ED106E0C649096841F4803153
:100E2000C44A116007E0C349096841F4A021C14ADE
:100E3000116000E000BF00BF704710B501460022FE
:100E4000002300204A11012A02D1BA4C236806E08F
:100E5000022A02D1B74C236A01E0B64C636A01F062
:100E60001F02012494401C400CB1012000E000202E
:100E700010BD38B5002000900024002500BF3120AF
:100E8000FFF7DBFF05460098401C00900098B0F586
:100E9000A06F01D0002DF2D03120FFF7CEFF08B1B6
:100EA000012400E00024204638BD01460020A14A6C
:100EB000106820F0F80040EAC10010607047A049B7
:100EC00008607047024600209A4B586820F47C1056
:100ED00042EA01031843974B5860704798490866E7
:100EE000704701460020934A506820F003000843F1
:100EF000506070478F48406800F00C007047014612
:100F000000208C4A506820F0F00008435060704781
:100F100001460020874A506820F4E0600843506092
:100F2000704701460020834A506820F4605040EA30
:100F3000C1005060704729B17E4A527A02437D4B0E
:100F40005A7204E07B4A527A82437A4B5A72704753
:100F50007B49D8310860704701460020754A5068C7
:100F600020F440400843506070470021714A20320D
:100F70001170704A82F82010012802D004280AD18A
:100F800004E001216B4A2032117005E00521694A15
:100F90002032117000E000BF00BF7047694908604F
:100FA00070476449096A0143624A116270476549A2
:100FB00044390860704730B5002100220024002326
:100FC0005C4D6D6805F00C0121B1042905D008299C
:100FD00023D105E05C4D056022E05B4D05601FE01C
:100FE000544D6D6805F47012524D6D6805F48034EF
:100FF000022505EB92421CB9544D554305600BE0A8
:101000004C4D6D6805F400351DB1504D55430560DC
:1010100002E04D4D5543056002E04B4D056000BFB9
:1010200000BF444D6D6805F0F0010909484D6B5C47
:101030000568DD4045603F4D6D6805F4E061090AD3
:10104000434D6B5C4568DD4085603A4D6D6805F445
:101050006051C90A3E4D6B5C4568DD40C560354D49
:101060006D6805F44041890B3A4D6B5CC568B5FB72
:10107000F3F5056130BD29B12E4A526902432D4B6B
:101080005A6104E02B4A526982432A4B5A617047E5
:1010900029B1284A92690243264B9A6104E0254A05
:1010A00092698243234B9A61704729B1214AD269E0
:1010B0000243204BDA6104E01E4AD26982431D4B91
:1010C000DA61704729B11B4AD2680243194BDA60D2
:1010D00004E0184AD2688243164BDA60704729B19F
:1010E000144A12690243134B1A6104E0114A12694F
:1010F0008243104B1A6170471249403908607047AB
:101100000F49C86470470B49C87170470948406A65
:1011100040F0807007494862704701460020054A48
:1011200092680A400AB1012000E00020704701499E
:1011300088727047001002400000FFF8FFFFF6FEC3
:10114000000042428004424200127A0000093D0041
:10115000140000202400002000206F49086048602F
:101160008860C86048628862C8626C4888630020F2
:10117000C86370470021684A516847F6FF6291438F
:10118000027D83681A4343681A43C3681A4303689D
:101190001A4303691A4311435F4A516070470021A3
:1011A0000175016041608160C160016170475C4907
:1011B000086070475849096821F00301564A1160D8
:1011C000114609680143116070475348006800F0F8
:1011D0000300704729B1504AD26B02434E4BDA6389
:1011E00004E04D4AD26B82434B4BDA6370474D4962
:1011F000086070470021484B02689A601A46D1681F
:101200006FF30A01D0E901231A43C3681A43036943
:101210001A431143404AD160704700210160416088
:101220008160C160016170473B480069C0B270478E
:1012300008B501460020009037481430084400905B
:101240000098006808BD0021334B02685A6242686A
:101250009A621A46D16A21F0F701D0E902231A43B3
:1012600003691A4343691A4311432B4AD1627047F9
:101270004FF0FF310160002141608160C160016178
:10128000416170472448006B7047234880300068F4
:10129000704721498031086070471F48806C704753
:1012A00020491431086070471E49183108607047A2
:1012B0001C491C31086070471A492031086070478A
:1012C0001949086070471849091D086070470121D5
:1012D0008143154A08321160704713490C31086088
:1012E0007047014600200C4A526B0A400AB10120A7
:1012F00000E00020704708498863704701460020DD
:10130000054A526B0A400AB1012000E000207047F4
:10131000014988637047000000800140FF07C0005A
:10132000A00030428C053042AC01304221B102882D
:1013300042F00102028004E002884FF6FE731A4078
:10134000028070471AB183890B43838102E083894D
:101350008B4383817047CA43028270470022028810
:10136000FA4B98420ED0FA4B98420BD0B0F1804F16
:1013700008D0F84B984205D0F74B984202D0F74B73
:10138000984204D14FF68F731A404B881A43F44B9E
:10139000984207D0F34B984204D04FF6FF431A40CF
:1013A000CB881A4302808B8883850B880385E74BA3
:1013B00098420BD0E64B984208D0EB4B984205D0B0
:1013C000EA4B984202D0EA4B984201D10B7A03864D
:1013D0000123838270477FB504460D46B4F1804FE8
:1013E00039D14FF4E060FEF7AFFF1C208DF800000C
:1013F00000208DF8010003208DF8020001208DF8F7
:1014000003006846FEF7A5FF01210846FFF74DFEE1
:10141000681E80B2ADF808004720ADF80400002037
:10142000ADF80A00ADF8060001A94FF08040FFF7C3
:1014300095FF01218807FFF78EFF012211469007D3
:10144000FFF780FF01218807FFF770FF00210120CF
:10145000FFF72BFE79E0BF48844238D14FF4E060BB
:10146000FEF772FF1D208DF8000000208DF80100AE
:1014700003208DF8020001208DF803006846FEF776
:1014800068FF01210220FFF710FE681E80B2ADF850
:1014900008004720ADF804000020ADF80A00ADF8C0
:1014A000060001A92046FFF759FF01212046FFF75A
:1014B00052FF012211462046FFF744FF012120463A
:1014C000FFF734FF00210220FFF7EFFD3DE0A248C7
:1014D000844238D14FF4E060FEF736FF1E208DF8CD
:1014E000000000208DF8010003208DF8020001208B
:1014F0008DF803006846FEF72CFF01210420FFF75A
:10150000D4FD681E80B2ADF808004720ADF8040095
:101510000020ADF80A00ADF8060001A92046FFF74B
:101520001DFF01212046FFF716FF0122114620462C
:10153000FFF708FF01212046FFF7F8FE00210420F5
:10154000FFF7B3FD01E000BFFEE77FBD10B5044625
:10155000B4F1804F04D101210846FFF7A6FD29E030
:101560007C48844204D101210220FFF79EFD21E046
:101570007948844204D101210420FFF796FD19E047
:101580007648844204D101210820FFF78EFD11E046
:101590007348844204D101211020FFF786FD09E041
:1015A0007048844204D101212020FFF77EFD01E034
:1015B00000BFFEE710BD10B50446B4F1804F04D162
:1015C00000210120FFF771FD29E06248844204D127
:1015D00000210220FFF769FD21E05F48844204D129
:1015E00000210420FFF761FD19E05C48844204D12A
:1015F00000210820FFF759FD11E05948844204D129
:1016000000211020FFF751FD09E05648844204D123
:1016100000212020FFF749FD01E000BFFEE710BDDB
:1016200010B504464948844208D10121C014FFF78F
:1016300049FD0021E014FFF745FDE1E0B4F1804FE2
:1016400008D101210846FFF74AFD00210120FFF7DC
:1016500046FDD5E03F48844208D101210220FFF732
:101660003EFD00210220FFF73AFDC9E03A488442DE
:1016700008D101210420FFF732FD00210420FFF7EB
:101680002EFDBDE03548844208D101210820FFF736
:1016900026FD00210820FFF722FDB1E030488442FA
:1016A00008D101211020FFF71AFD00211020FFF7BB
:1016B00016FDA5E02B48844208D101212020FFF728
:1016C0000EFD00212020FFF70AFD99E0204884420A
:1016D00008D101214014FFF7F5FC00216014FFF749
:1016E000F1FC8DE02348844209D10121C804FFF7B1
:1016F000E9FC00214FF40020FFF7E4FC80E01E48E5
:10170000844209D101210805FFF7DCFC00214FF4D8
:101710008010FFF7D7FC73E01848844209D10121FB
:101720004805FFF7CFFC00214FF40010FFF7CAFC7B
:1017300066E01348844225D101214020FFF7CFFC09
:1017400000214020FFF7CBFC5AE00000002C0140B4
:10175000003401400004004000080040000C00403C
:1017600000100040001400400040014000440140CF
:1017700000480140004C014000500140005401402D
:1017800000180040F948844208D101218020FFF769
:10179000A6FC00218020FFF7A2FC31E0F44884423F
:1017A00008D101218015FFF79AFC0021A015FFF751
:1017B00096FC25E0EF48844209D101210804FFF797
:1017C00081FC00214FF48030FFF77CFC18E0EA48F0
:1017D000844209D101214804FFF774FC00214FF431
:1017E0000030FFF76FFC0BE0E448844208D1012190
:1017F0008804FFF767FC00214FF48020FFF762FCAC
:1018000010BD70B5002400220023058C4FF6FE7633
:1018100035400584028C8388048B4FF68F752C40ED
:10182000B51E2C400D882C43751E2A400D892A4375
:101830004D882A43D24DA8420BD0D24DA84208D0A1
:10184000CC4DA84205D0CC4DA84202D0CB4DA842E9
:1018500013D14FF6F7752A404D892A434FF6FB7591
:101860002A408D882A434FF6FF652B404FF6FF55DF
:101870002B408D892B43CD892B4383800483CD88D6
:101880008586028470BD70B5002400220023058C7B
:101890004FF6EF7635400584028C8388048B48F63A
:1018A000FF752C404FF6FF452C400D884FF6FF7614
:1018B00006EA05252C434FF6DF752A400D8906EA16
:1018C00005152A434D8806EA05152A43AC4DA84262
:1018D00002D0AC4DA8421DD14FF67F752A404D89EC
:1018E0004FF6FF7606EA05152A434FF6BF752A40E4
:1018F0008D8806EA05152A434FF6FF352B404FF237
:10190000FF752B408D8906EA85052B43CD8906EAB4
:1019100085052B4383800483CD880587028470BDB1
:1019200070B5002400220023058C4FF6FF66354079
:101930000584028C8388848B4FF68F752C404FF67C
:10194000FC752C400D882C434FF6FF552A400D891D
:101950004FF6FF7606EA05252A434D8806EA052557
:101960002A43874DA84202D0864DA8421DD14FF28E
:10197000FF752A404D894FF6FF7606EA05252A4372
:101980004FF6FF352A408D8806EA05252A434EF694
:10199000FF752B404DF6FF752B408D8906EA051526
:1019A0002B43CD8906EA05152B4383808483CD889C
:1019B0008587028470BD70B5002200230024058C49
:1019C0004EF6FF7635400584038C8488828B48F67A
:1019D000FF752A404FF6FF452A400D884FF6FF76E7
:1019E00006EA05252A434DF6FF752B400D8906EAC8
:1019F00005352B434D8806EA05352B43604DA8423B
:101A000002D0604DA84208D14BF6FF752C408D895D
:101A10004FF6FF7606EA85152C4384808283CD88B5
:101A2000A0F84050038470BD828B4FF2FF331A4000
:101A30008283828B4FF6FF7303EA01231A4382836A
:101A40007047F0B50C461546002200210026078C91
:101A50004EF6FF7C07EA0C070784828B018C4FF659
:101A6000FF7707EA043640F6FF473A404FF6FF7724
:101A700007EA05273A434FF6FF7707EA03373A4369
:101A80003F4FB8420ED03F4FB8420BD0B0F1804F1D
:101A900008D03D4FB84205D03C4FB84202D03C4F31
:101AA000B84206D14DF6FF77394046F480573943A6
:101AB00005E047F6FF57394044F4805739438283A5
:101AC0000184F0BD828B4FF6F3731A408283828BC0
:101AD0000A4382837047F0B50C4615460022002168
:101AE0000026078C4FF6FF6C07EA0C070784828BF1
:101AF000018C4FF6FF7707EA04264FF60C773A4041
:101B00004FF6FF7707EA03172F433A431C4FB842BB
:101B10000ED01C4FB8420BD0B0F1804F08D01A4FF6
:101B2000B84205D0194FB84202D0194FB84206D179
:101B30004FF6FF57394046F48077394305E04FF2BE
:101B4000FF57394044F48077394382830184F0BDE4
:101B5000028B4FF2FF331A400283028B4FF6FF7362
:101B600003EA01231A43028370470000001C00406F
:101B70000020004000400140004401400048014076
:101B8000002C0140003401400004004000080040E7
:101B9000000C0040F0B50C4615460022002100263E
:101BA000078C4FF6EF7C07EA0C070784028B018C49
:101BB0004FF6FF7707EA041640F6FF473A404FF624
:101BC000FF7707EA03373A434FF6FF7707EA05271F
:101BD0003A43FA4FB8420ED0F94FB8420BD0B0F1A9
:101BE000804F08D0F74FB84205D0F74FB84202D027
:101BF000F64FB84206D14FF6DF77394046F010076E
:101C0000394305E04FF65F77394044F01007394318
:101C100002830184F0BD028B4FF6F3731A400283F6
:101C2000028B0A4302837047F0B50C46154600222A
:101C30000021068C4FF6FE773E400684028B018C15
:101C40004FF60C7632407E1C06EA03162E433243D2
:101C5000DA4EB0420ED0DA4EB0420BD0B0F1804F27
:101C600008D0D84EB04205D0D74EB04202D0D74EA1
:101C7000B04206D14FF6FD76314044F001063143C3
:101C800005E04FF6F576314044F00106314302831A
:101C90000184F0BD70B505460C46C84885420ED09B
:101CA000C74885420BD0B5F1804F08D0C548854262
:101CB00005D0C548854202D0C448854200D100E025
:101CC00000BF208850B92389A28861882846FFF781
:101CD000ABFFE1882846FFF79EFF25E02088042817
:101CE0000AD12389A28861882846FFF753FFE1883B
:101CF0002846FFF72DFF17E0208808280AD12389FE
:101D0000A28861882846FFF7E6FEE1882846FFF7AB
:101D1000D9FE09E02389A28861882846FFF791FE51
:101D2000E1882846FFF780FE70BD2DE9F0410546A9
:101D30000C4600260127608808B9022600E000262C
:101D4000A088012801D1022700E001272088A0B93E
:101D50002389A28861882846FFF766FFE188284624
:101D6000FFF759FF23893A4631462846FFF712FF0D
:101D7000E1882846FFF7ECFE13E02389A2886188FA
:101D80002846FFF707FFE1882846FFF7E1FE238991
:101D90003A4631462846FFF747FFE1882846FFF7D5
:101DA0003AFFBDE8F0810A884B881A438B881A43B2
:101DB000CB881A430B891A434B891A438B891A43E0
:101DC000A0F8442070474FF6FF7181800021018008
:101DD000C180418001727047002101804180818073
:101DE000C180018141818181C181704700210180D1
:101DF0004180012181800021C18001817047002143
:101E0000018041808180C180018141818181704751
:101E100031B1B0F8442042F40042A0F8442005E07B
:101E2000B0F84420C2F30E02A0F84420704781822B
:101E3000704741EA0203A0F8483070471AB183891D
:101E40000B43838102E083898B438381704701893F
:101E50004FF6F8721140018170470A46002101894E
:101E60004FF68F73194011430181704730B5044616
:101E70000D4629462046FFF7F0FF208940F0070075
:101E8000208130BD2DE9F04104460D4616461F461F
:101E9000602D06D13B46012231462046FFF77AFEEF
:101EA00005E03B46012231462046FFF7BDFE2946AC
:101EB0002046FFF7D2FF208940F007002081BDE8CF
:101EC000F08130B50C4600210189C9B24FF6FF758B
:101ED00005EA0325154325432943018130BD2DE93A
:101EE000F04105460E4617469846002443463A46BA
:101EF00031462846FFF7E5FF2C894FF6F87004407D
:101F000044F007044FF68F70044044F070042C81B5
:101F1000BDE8F081F0B504460D4616461F463B4627
:101F2000324629462046FFF7CCFF208940F4804006
:101F30002081F0BD0185828270470A460021018818
:101F40004FF68F731940114301807047F0B50C466E
:101F500015461E460021002200230189028B038CB6
:101F60004FF6F877394021434FF6FC473A4040F2AC
:101F700001173A434FF6DD773B404FF6FF7707EA0C
:101F800006172F433B43018102830384F0BD0A46B9
:101F90000021018B4FF68F73194011430183704765
:101FA0000A460021018B48F6FF7319404FF6FF7374
:101FB00003EA02231943018370470000002C01400B
:101FC000003401400004004000080040000C0040C4
:101FD0000A460021818B4FF68F731940114381838C
:101FE00070470A460021818B48F6FF7319404FF66F
:101FF000FF7303EA022319438183704721B10288EA
:1020000042F08002028004E002884FF67F731A409B
:102010000280704721B1828842F00402828004E08D
:1020200082884FF6FB731A408280704721B1828804
:1020300042F00802828004E082884FF6F7731A406B
:102040008280704721B1828842F00102828004E0E0
:1020500082884FF6FE731A40828070470A4600213C
:10206000018B4FF6F77319401143018370470A46FD
:102070000021018B4FF2FF7319404FF6FF7303EA03
:1020800002231943018370470A460021818B4FF6D2
:10209000F77319401143818370470A460021818BF1
:1020A0004FF2FF7319404FF6FF7303EA02231943FF
:1020B000818370470A460021018B4FF6FB7319405C
:1020C0001143018370470A460021018B4FF6FF330D
:1020D00019404FF6FF7303EA022319430183704747
:1020E0000A460021818B4FF6FB731940114381830F
:1020F00070470A460021818B4FF6FF3319404FF697
:10210000FF7303EA02231943818370470A460021C3
:10211000018B4FF67F7319401143018370470A46C4
:102120000021018BC1F30E014FF6FF7303EA022376
:102130001943018370470A460021818B4FF67F7354
:1021400019401143818370470A460021818BC1F3F6
:102150000E014FF6FF7303EA022319438183704790
:102160000A460021018C4FF6FD731940114301848A
:1021700070470A460021018C4FF6F773194011434E
:10218000018470470A460021018C4FF6DF73194025
:102190004FF6FF7303EA02131943018470470A469E
:1021A0000021018C4FF67F7319404FF6FF7303EA4D
:1021B00002131943018470470A460021018C4FF62F
:1021C000FF5319404FF6FF7303EA022319430184BA
:1021D00070470A460021018C4FF2FF7319404FF6F9
:1021E000FF7303EA02231943018470470A46002162
:1021F000018C4DF6FF7319404FF6FF7303EA02336B
:1022000019430184704730B5002301248C40A3B2E8
:10221000048C9C430484048C02FA01F5ADB22C4377
:10222000048430BD30B5002304248C40A3B2048C58
:102230009C430484048C02FA01F5ADB22C4304845F
:1022400030BD70B503460020002418461830012523
:102250008D40ACB21D8CA5431D8409B1082909D15C
:1022600000EB6100056825F0700505600568154301
:1022700005600EE00D1FC5F34E052844056825F4E2
:10228000E045056005684FF6FF7606EA022635430D
:10229000056070BD21B1028842F00202028004E0B4
:1022A00002884FF6FD731A400280704721B1028800
:1022B00042F00402028004E002884FF6FB731A40E9
:1022C0000280704721B1828842F08002828004E05F
:1022D00082884FF67F731A408280704702884FF6DB
:1022E000F7731A40028002880A430280704782888E
:1022F0004FF68F731A40828082880A43828070472B
:1023000002894FF6F8731A40028102890A4302815A
:10231000704702894FF67F731A40028102890A438F
:10232000028170478184704781857047818670473C
:102330000187704781877047A0F840107047028876
:102340004FF6FF431A40028002880A43028070471A
:102350000146888E70470146088F70470146888F76
:1023600070470146B1F8400070470146888C7047BD
:102370000146088D704702460020138A0B400BB1BE
:10238000012000E00020704730B502460020002305
:102390000024158A05EA0103958905EA010413B1B1
:1023A0000CB1012000E0002030BDCA43028270471A
:1023B00021B1828942F40052828104E082894DF683
:1023C000FF731A4082817047F0B50346002400264F
:1023D0000025002040F66A17B94200D100BF184618
:1023E000C1F3421401F01F06012707FA06F5012C7C
:1023F00001D10C3004E0022C01D1103000E0143087
:102400001AB107682F43076002E00768AF4307600F
:10241000F0BD2DE9F04786B005460E460024A246E1
:1024200000BFA1460027B08900B100BF2F462C8A0B
:102430004CF6FF700440F08804432C82AC894EF6C1
:10244000F3100440B088318908437189084304437C
:10245000AC81AC8A4FF6FF400440B0890443AC82A3
:1024600001A8FEF7A8FDFA48874202D1DDF810A0C6
:1024700001E0DDF80CA0A88900F4004040B10AEBAF
:10248000CA0000EB0A1031684900B0FBF1F807E020
:102490000AEBCA0000EB0A1031688900B0FBF1F8C2
:1024A0006420B8FBF0F004012009642101FB1089CD
:1024B000A88900F4004040B1322000EBC900B0FB15
:1024C000F1F000F00700044308E0322000EB0910AF
:1024D0006421B0FBF1F000F00F0004432C8106B042
:1024E000BDE8F08730B585B005460C4601212020B7
:1024F000FEF7CEFD01211020FEF7CAFD01210805DF
:10250000FEF7D3FD4FF48050ADF8100018208DF881
:10251000130003208DF8120004A9CE48FEF73CF901
:102520000420ADF810008DF8130004A9CA48FEF786
:1025300033F900950020ADF80400ADF80600ADF8C1
:102540000800ADF80C000C20ADF80A006946C3483D
:10255000FFF75FFF012C06D1012240F22551BF4851
:10256000FFF732FF05E0002240F22551BB48FFF79C
:102570002BFF0121B948FFF71BFF05B030BD30B577
:1025800085B005460C4601211020FEF781FD012192
:10259000C804FEF78AFD4FF48060ADF810001820E3
:1025A0008DF8130003208DF8120004A9A948FEF746
:1025B000F3F84FF40060ADF8100004208DF813001C
:1025C00004A9A448FEF7E8F800950020ADF804003F
:1025D000ADF80600ADF80800ADF80C000C20ADF821
:1025E0000A0069469E48FFF714FF012C06D101221C
:1025F00040F225519A48FFF7E7FE05E0002240F23D
:1026000025519748FFF7E0FE01219548FFF7D0FEDE
:1026100005B030BD30B585B005460C460121082017
:10262000FEF736FD01218804FEF73FFD4FF4806080
:10263000ADF8100018208DF8130003208DF812005B
:1026400004A98848FEF7A8F84FF40060ADF8100020
:1026500004208DF8130004A98248FEF79DF8009528
:102660000020ADF80400ADF80600ADF80800ADF8A4
:102670000C000C20ADF80A0069467B48FFF7C9FE44
:10268000012C06D1012240F225517748FFF79CFE2C
:1026900005E0002240F225517348FFF795FE012125
:1026A0007148FFF785FE05B030BD30B585B00546F1
:1026B0000C4601210420FEF7EBFC01214804FEF743
:1026C000F4FC0420ADF8100018208DF8130003204E
:1026D0008DF8120004A96548FEF75EF80820ADF8F1
:1026E000100004208DF8130004A96048FEF754F888
:1026F00000950020ADF80400ADF80600ADF8080024
:10270000ADF80C000C20ADF80A0069465848FFF7F8
:1027100080FE012C06D1012240F225515448FFF7DA
:1027200053FE05E0002240F225515148FFF74CFED0
:1027300001214F48FFF73CFE05B030BD08B54FF40E
:10274000E060FDF701FE25208DF8000000208DF8E7
:10275000010001208DF802008DF803006846FDF7A6
:10276000F8FD08BD30B585B005460C46012144F2A0
:102770000400FEF78DFC4FF40070ADF81000182037
:102780008DF8130003208DF8120004A93748FEF7D6
:1027900003F84FF48060ADF8100004208DF81300AA
:1027A00004A93248FDF7F8FF00950020ADF80400B9
:1027B000ADF80600ADF80800ADF80C000C20ADF83F
:1027C0000A0069462248FFF724FE012C08D1FFF7D2
:1027D000B5FF012240F225511D48FFF7F5FD05E048
:1027E000002240F225511A48FFF7EEFD012118485A
:1027F000FFF7DEFD05B030BD70B504460D46164648
:102800001348844204D131462846FFF7ABFF33E03A
:102810001748844204D131462846FFF746FF2BE093
:102820001148844204D131462846FFF7F3FE23E0E5
:102830000B48844204D131462846FFF7A0FE1BE036
:102840000648844216D131462846FFF74BFE13E076
:1028500000380140001001400014014000500040C9
:10286000004C0040000C01400048004000080140BE
:102870000044004000BFFEE770BDF0B58BB00446D9
:102880000F4616461D460197102002900396002021
:10289000049080200590002006900790202008904A
:1028A0001DB94FF4405009900DE0012D02D168038D
:1028B000099008E0022D02D1E802099003E0032DFF
:1028C00001D10020099000200A90F84884420ED1DE
:1028D000001D009001210846FEF7CDFB6946F44833
:1028E000FDF742FE0121F248FDF769FE38E0F148AC
:1028F000844210D1001D009001210846FEF7BBFB69
:102900006946EB483C30FDF72FFE0121E8483C309A
:10291000FDF755FE24E0E848844210D1001D0090E8
:1029200001210846FEF7A7FB6946E1482838FDF774
:102930001BFE0121DE482838FDF741FE10E0DF488C
:1029400084420DD1001D009001210220FEF793FB6F
:102950006946DB48FDF708FE0121D948FDF72FFE47
:102960000BB0F0BD02460020B1F5007F00D100BFE2
:1029700013880B400BB1012000E000207047C1F329
:1029800008028280704730B505460C460BE014F80B
:10299000011B2846FFF7F3FF00BF80212846FFF701
:1029A000E1FF0028F9D020780028F0D130BD30B503
:1029B00004460D4629462046FFF7E1FF00BF80216F
:1029C0002046FFF7CFFF0028F9D030BDFEB50746FF
:1029D0000E46002E04DA76422D213846FFF7E7FF37
:1029E000354600208DF8000001240CE00A20B5FBDC
:1029F000F0F100FB115030300DF804000A20B5FB57
:102A0000F0F5601CC4B20A20B5FBF0F00028EDD14F
:102A10000A20B5FBF0F100FB115030300DF8040036
:102A200006E01DF804103846FFF7C1FF601EC4B26F
:102A3000002CF6DCFEBD2DE9FC5F80460D462F46DE
:102A40004FF07E51384602F0AFFC814602F01AFE8C
:102A50000646304602F0FCFD8346394602F06FFC24
:102A60008246984902F06EFC814602F00BFE044655
:102A7000002C00DA644231464046FFF7A7FF2E21C2
:102A80004046FFF794FF642094FBF0F03030C0B272
:102A90008DF800000A2094FBF0F00A2190FBF1F27F
:102AA00001FB12003030C0B28DF801000A2094FB07
:102AB000F0F100FB11403030C0B28DF80200202050
:102AC0008DF8030000208DF8040069464046FFF7AA
:102AD0005AFFBDE8FC9FFEB507460E46354600206E
:102AE0008DF8000001240CE00A20B5FBF0F100FB9A
:102AF000115030300DF804000A20B5FBF0F5601CD1
:102B0000C4B20A20B5FBF0F00028EDD10A20B5FBD5
:102B1000F0F100FB115030300DF8040006E01DF814
:102B200004103846FFF743FF601EC4B2002CF6DCE9
:102B3000FEBD10B504465D48844209D101218803D9
:102B4000FEF7C0FA00214FF48040FEF7BBFA32E0F6
:102B50005848844209D101214804FEF7C0FA0021F7
:102B60004FF40030FEF7BBFA25E05348844209D108
:102B700001218804FEF7B3FA00214FF48020FEF70C
:102B8000AEFA18E04D48844209D10121C804FEF78D
:102B9000A6FA00214FF40020FEF7A1FA0BE04A4804
:102BA000844208D101210805FEF799FA00214FF46B
:102BB0008010FEF794FA10BD4FF416510160002109
:102BC0008180C18001810C21418100218181704778
:102BD00010B502460020108A4FF2FF0318400B8800
:102BE0004C8823438C882343CC882343184310828A
:102BF00010BD0021018041808180C18070471AB1E1
:102C0000838A0B43838202E0838A8B4383827047EB
:102C1000028A4FF6F0731A400282028A0A43028245
:102C2000704782894FF2FF731A40828182890A437A
:102C30008281704721B1828942F00202828104E0E0
:102C400082894FF6FD731A4082817047028A4FF6DF
:102C5000DF731A400282028A0A430282704721B15E
:102C6000028A42F48042028204E0028A4BF6FF7339
:102C70001A400282704701468888C0F308007047F6
:102C8000818941F0010181817047028BD2B20283B8
:102C9000028B42EA012202837047028B02F47F42D8
:102CA0000283028B0A430283704700000038014010
:102CB000440002400044004000480040004C0040F6
:102CC0005804024000007A440050004021B1828A3A
:102CD00042F02002828204E0828A4FF6DF731A40BB
:102CE0008282704721B1828A42F01002828204E01F
:102CF000828A4FF6EF731A408282704721B1828A2E
:102D000042F00802828204E0828A4FF6F7731A408A
:102D10008282704721B1828942F40042828103E0BD
:102D20008289C2F30E028281704721B1828A42F405
:102D30000062828204E0828A4FF2FF731A4082822C
:102D40007047828A4FF6FB731A408282828A0A4356
:102D50008282704721B1828A42F00202828204E0BC
:102D6000828A4FF6FD731A408282704701F4007226
:102D7000B2F5007F00D100BFCA430280704770B532
:102D80000246002400230025002040F66A16B142C6
:102D900000D100BFC1F3421501F01F03012606FA5E
:102DA00003F3012D02D19689334006E0022D02D1B2
:102DB000168A334001E0968A33400C12012606FA47
:102DC00004F41688344013B10CB1012000E0002057
:102DD00070BD10B50022002340F66A14A14200D154
:102DE00000BF0A1201249440A3B2DC43048010BD4A
:102DF0002DE9F04F8DB00024A146A246AE22214617
:102E0000641C04A84254EA222146641C4254002255
:102E10002146641C4254A1222146641C425400BF36
:102E20002BE04FF0000BFE4951F82900FD4902F05C
:102E300089FA019002F058FC07460022FA4B02F092
:102E4000F1FA0022F94BCDE9020102F092FB0546AE
:102E500002F031FC1FFA80FB2046611CCCB204A9B1
:102E600001F800B04FEA1B222046611CCCB204A935
:102E70000A5409F1010000F0FF09B9F10C0FD0DB91
:102E8000E01CC0B28DF812004FF0000909E004A860
:102E900010F80900504400F0FF0A09F1010000F0A9
:102EA000FF09A145F3DB0AF1EF0000F0FF0AAAF1E8
:102EB000020000F0FF0A2046611CCCB204A901F810
:102EC00000A0EF222046611CCCB204A90A54FE22C5
:102ED0002046611CCCB204A90A544FF0000910E04E
:102EE00004A810F80910D248FFF749FD00BF80215F
:102EF000CF48FFF737FD0028F9D009F1010000F0B5
:102F0000FF09A145ECDB0DB0BDE8F08F2DE9F047DE
:102F1000002400BF00BF23E04FF0010912E004EBE2
:102F20004400C44901EBC00050F8291004EB4400F0
:102F3000C04A02EBC002A9F1010042F82010801C37
:102F400000F0FF09B9F1050FE9DBB54850F824009E
:102F500004EB4401B74A02EBC1010861601CC4B232
:102F60000C2CD9DB002434E000252E46A94613E0C2
:102F700004EB4401AF4A02EBC10151F8290002F011
:102F8000B3FB07462A46334602F04CFA05460E4686
:102F900009F1010000F0FF09B9F1050FE8DB00229B
:102FA000A54B2846314602F0E4FA074602F0AFFB93
:102FB00004EB44019F4A02EBC101486104EB440069
:102FC000114601EBC0004069954941F82400601C9E
:102FD000C4B20C2CC8DBBDE8F08710B50123102269
:102FE00011019648FDF763FC01231022D10193489B
:102FF000FDF75DFC0123102211029048FDF757FCFC
:1030000001231022D1028D48FDF751FC012310222B
:1030100004218B48FDF74BFC01231022082188482E
:10302000FDF745FC0123102211468548FDF73FFCC2
:103030000123102220218248FDF739FC01231022B0
:1030400011027F48FDF733FC0123102251027C4816
:10305000FDF72DFC0123102291027948FDF727FC92
:1030600001231022D1027648FDF721FC4FF4807134
:103070007248FDF730FE4FF400617048FDF72BFEFB
:103080004FF480516D48FDF726FE4FF400416B4828
:10309000FDF721FE04216A48FDF71DFE082168485E
:1030A000FDF719FE10216648FDF715FE2021644842
:1030B000FDF711FE4FF480516148FDF70CFE4FF40F
:1030C00000515F48FDF707FE4FF480415C48FDF773
:1030D00002FE4FF400415A48FDF7FDFD012328226E
:1030E00019465648FDF7E3FB0123282202215348E5
:1030F000FDF7DDFB0123282204215048FDF7D7FB13
:103100000123282208214D48FDF7D1FB0123282265
:1031100040214A48FDF7CBFB012328228021474864
:10312000FDF7C5FB0123282219464548FDF7BFFBE3
:103130000123282202214248FDF7B9FB012328225E
:1031400040213F48FDF7B3FB0123282280213C4862
:10315000FDF7ADFB0123282219023948FDF7A7FB33
:103160000123282259023648FDF7A1FB10BD00F0CB
:1031700079FB01210520FDF78BFF01213148FDF787
:10318000CCFDFFF72AFF0123102251022E48FDF744
:103190008EFB01224FF4E1312548FFF72DFB2BA1D7
:1031A0002348FFF7F0FB00202E4908802E490880B5
:1031B0002E4908802E4908802E4908802E49088013
:1031C0002E4908802E4908802E4908802E49088003
:1031D0002E4908802E49088032214807FEF7FBF867
:1031E0004CF250312B48FEF7F6F82A48FEF7AEF9BC
:1031F000CBE12948008800287DDD00202649088091
:103200004FF400511048FDF79EFB00202349088031
:103210004FF480710948FDF7BDFA4FF400613FE0BB
:103220004C000020000020410000E03F0000F03F83
:10323000003801407C0000200000144000080140DC
:10324000000C01400002300000100140556C747207
:1032500061736F6E696320B2E2C1BFBAAFCAFD0A83
:103260000000000032000020340000203600002062
:10327000380000203A0000203C0000203E000020E2
:1032800040000020420000204400002046000020B2
:1032900048000020000400409C0100202E00002077
:1032A000C448FDF777FA4FF48051C248FDF772FA2F
:1032B0004FF40041BF48FDF76DFA0421BE48FDF709
:1032C00069FA0821BC48FDF765FA1021BA48FDF7F4
:1032D00061FA2021B848FDF75DFA4FF48051B648F5
:1032E000FDF758FA4FF40051B348FDF753FA4FF485
:1032F0008041B14800E063E0FDF74CFA4FF4004133
:10330000AD48FDF747FA052000F0DEFA4FF4807172
:10331000A848FDF7E0FC4FF40061A648FDF7DBFC90
:103320004FF48051A348FDF7D6FC4FF40041A1486B
:10333000FDF7D1FC0421A048FDF7CDFC08219E48F3
:10334000FDF7C9FC10219C48FDF7C5FC20219A48D7
:10335000FDF7C1FC4FF480519748FDF7BCFC4FF4DA
:1033600000519548FDF7B7FC4FF480419248FDF7B6
:10337000B2FC4FF400419048FDF7ADFC00208F49AE
:1033800008808F4908808F4908808F4908808F49BD
:1033900008808F4908808F4908808F4908808F49AD
:1033A00008808F4908808F4908808F490880012054
:1033B0008E4908808007FEF7C9F800208C490880F4
:1033C0008A48008802287CD17C490988322201FB86
:1033D00002F002F046F906460022864B02F0C9F8D8
:1033E000044602F094F9844908607549098832223C
:1033F00001FB02F002F035F9064600227D4B02F097
:10340000B8F8044602F083F97B4948606D490988A1
:10341000322201FB02F002F024F906460022754B2D
:1034200002F0A7F8044602F072F973498860664911
:103430000988322201FB02F002F013F9064600224D
:103440006C4B02F096F8044602F061F96A49C860D4
:103450005E490988322201FB02F002F002F90646B9
:103460000022644B02F085F8044602F050F96249EC
:10347000086157490988322201FB02F002F0F1F895
:10348000064600225B4B02F074F8044602F03FF956
:10349000594948614F490988322201FB02F002F084
:1034A000E0F806460022534B02F063F8044602F0AF
:1034B0002EF95149886148490988322201FB02F0FE
:1034C00000E05AE002F0CDF806460022494B02F037
:1034D00050F8044602F01BF94749C8613F49098882
:1034E000322201FB02F002F0BCF806460022414BFA
:1034F00002F03FF8044602F00AF93F4908623849F1
:103500000988322201FB02F002F0ABF806460022E5
:10351000384B02F02EF8044602F0F9F836494862BA
:1035200030490988322201FB02F002F09AF806467F
:103530000022304B02F01DF8044602F0E8F82E4954
:10354000886229490988322201FB02F002F089F8D9
:1035500006460022274B02F00CF8044602F0D7F88A
:103560002549C862FFF7D2FCFFF742FC04201F493F
:1035700008800007FEF71FF807E01C4800880328B2
:1035800003D14FF08040FEF716F832E610B5002464
:1035900000BF0CE0184951F82400184902F0D4F893
:1035A00003D21648144941F82400601CC4B20C2C04
:1035B000F0DB10BD00080140000C0140320000208B
:1035C0003400002036000020380000203A0000209F
:1035D0003C0000203E00002040000020420000206F
:1035E0004400002046000020480000202E0000205B
:1035F0003000002000004D404C0000200000164428
:10360000704700BFFEE700BFFEE700BFFEE700BF58
:10361000FEE770477047704710B501218807FEF735
:10362000B3FE00287ED07B480088401C7949088082
:1036300008460088012876DD08460088B0F5487FF6
:1036400071DC7548008801287DD101217348FDF7A0
:1036500017FB20B172480088401C71490880022184
:103660006E48FDF70DFB20B16E480088401C6D4987
:10367000088004216948FDF703FB20B16A480088EF
:10368000401C6949088008216448FDF7F9FA20B117
:1036900066480088401C6549088040215F48FDF766
:1036A000EFFA20B162480088401C614908808021FF
:1036B0005A48FDF7E5FA20B15E480088401C5D4994
:1036C000088001215C48FDF7DBFA20B15B480088E7
:1036D000401C5A49088002215748FDF7D1FA20B111
:1036E00057480088401C5649088040215248FDF741
:1036F000C7FA20B153480088401C524908808021F5
:103700004D48FDF7BDFA20B14F480088401C4E4996
:1037100008804FF480714848FDF7B2FA38B14B4841
:10372000008801E02BE00EE0401C484908804FF47F
:1037300000714148FDF7A4FAE8B145480088401CF3
:103740004349088017E033480088B0F5487F09DD19
:103750003048008840F2B631884203DA02202E4910
:10376000088008E02B48008840F2B631884202DB2E
:1037700000202849088001218807FEF716FE10BDA9
:1037800010B501213348FEF7FFFD40B132480088F3
:10379000401C3149088001212E48FEF706FE10BD6D
:1037A00010B540F225512D48FFF7E9FA38B12B4802
:1037B000FFF761FAC4B221462848FFF7F8F840F253
:1037C00025512648FFF705FB10BD2548006820B1AC
:1037D00023480068401E22490860704710B5012048
:1037E000FCF7BEFF30B101211348FDF7ACF8012012
:1037F000FCF7C7FF10BD10B54FF40070FCF7B0FF29
:1038000018B14FF40070FCF7BCFF10BD10B500F00C
:1038100031FE10BD300000202E00002000080140C5
:103820003200002034000020360000203800002044
:103830003A0000203C000020000C01403E00002027
:1038400040000020420000204400002046000020EC
:1038500048000020000400409C0100200038014086
:103860002800002030B54FF43471B1F1807F01D3CE
:1038700001201DE021F07F40401E4FF0E02250610A
:1038800050170F22002807DA13071D0E354B00F0E2
:103890000F04241F1D5503E013071C0E324B1C544C
:1038A00000BF00204FF0E02290610720106100204F
:1038B00008B100BFFEE74FF0E020006920F00100F2
:1038C0004FF0E021086130BD284908604FF0E02149
:1038D000096941F001014FF0E022116100BF234965
:1038E00009680029FBD1704710B501210320FDF7BD
:1038F000DCFB8020C10508804FF6FF708885002022
:10390000088501208882A720088184201849088022
:103910002020091D08804FF6FF7015492C310880C2
:103920004720091F08800120114914310880802098
:103930000F49083108800E48008840F001000C490A
:1039400008800805008840F001000905088010BDC6
:1039500000204FF08041888C0004054924310988FB
:103960000844704718ED00E000E400E02800002063
:103970000004004008B50020FDF719FC0020FDF709
:1039800019FCFDF7E9FB00214FF48060FDF773FBA4
:103990004FF4F850ADF8000004208DF8030069469C
:1039A000FE48FCF7F9FE0420ADF800006946FC482B
:1039B000FCF7F2FE08BD08B54FF4C060FCF7C4FC8C
:1039C00000208DF8010004208DF8020001208DF800
:1039D00003006846FCF7BDFC08BD08B50121302096
:1039E000FDF756FB4FF4F850ADF8000003208DF8BA
:1039F000020018208DF803006946E848FCF7CCFE69
:103A00000420ADF800006946E548FCF7C5FE012139
:103A10008802FDF730FB01210220FDF72CFB08BDD9
:103A200010B5E048FCF7E6FD10BD30B58BB005469B
:103A30000C46DD48FCF7F2FD0021DC48FCF7BFFD39
:103A4000DB480090019500200290A0080390002020
:103A50000490802005908000069080000790002050
:103A600008904FF40050099000200A906946CF4812
:103A7000FCF77AFD0121CD48FCF7A1FD0BB030BD6C
:103A800030B58BB005460C46C748FCF7C7FD002192
:103A9000C648FCF794FDC64800900195102002909E
:103AA000A0080390002004908020059080000690DC
:103AB00080000790002008904FF4005009900020EB
:103AC0000A906946B948FCF74FFD0121B748FCF759
:103AD00076FD0BB030BD014600BFB5488038406B65
:103AE00000F045000028F8D040F2FF50B04A803A7C
:103AF00090631046406908221040C0B2704770B50C
:103B000004460025AB4800880004A9498039886034
:103B100040F24D40C8600D20FFF7DDFF05460DB1B6
:103B2000284670BDA2488038406920602846F8E7E2
:103B300008B5002000906846FFF7E1FF08B1FF20BC
:103B400008BD0098C0F34320FAE710B50424FFF73E
:103B5000EFFF0446042C01D1002010BDFF2C01D141
:103B60000220FAE70120F8E770B504460025002698
:103B70000020FDF75DFB00F0007010B10E25284617
:103B800070BD40208C49086010204860402088604B
:103B90000020C8604FF4806008610846FDF72AFBEA
:103BA0001020FFF798FF05460DB12846E8E7814849
:103BB0000088000480490860372048604020886001
:103BC0000020C8604FF4806008610846FDF712FBD2
:103BD0003720FFF780FF05460DB12846D0E74FF0AC
:103BE000FF307649086040204860602088600220ED
:103BF000C86000200861012048610846FDF723FBEA
:103C000000206D4908600D20486040208860002039
:103C1000C8604FF4806008610846FDF7EBFA0D209C
:103C2000FFF759FF05460DB12846A9E70EE04FF40E
:103C30000040FDF756FB48B1002604E0FDF725FBE8
:103C400044F82600761C082EF8D3203458488038D3
:103C5000406B40F22A6108400028E8D00820FDF7B8
:103C600040FB28B10820FDF746FB0425284687E7DE
:103C70000220FDF736FB28B10220FDF73CFB0225B0
:103C800028467DE72020FDF72CFB28B12020FDF7FA
:103C900032FB0625284673E74FF40070FDF721FB41
:103CA00030B14FF40070FDF726FB0725284667E783
:103CB00003E0FDF7EAFA2060241D4FF40010FDF741
:103CC00010FB0028F5D140F2FF50FDF714FB284609
:103CD00056E770B50446002600253948FFF744FF33
:103CE00006460EB1304670BD35480078850925700E
:103CF00033480078C0F34015657031488578280254
:103D000060802F48C5786088284360802C480579FA
:103D1000280660602A484579606840EA054060608E
:103D200027488579606840EA052060602448C579A5
:103D30006068284360602248057A2572457A65727A
:103D4000807A0509A5721E48C57A2802A0811C4800
:103D5000057BA0892843A0811948407B8508A5736D
:103D60001748407B00F00305E5733046BBE72DE9BB
:103D7000F04107460D461446002600201149087000
:103D8000114908601149086009498039C862104822
:103D90000068022801D104026D0A1BE000100140F6
:103DA000001401400020001000F000104404024004
:103DB00080800140A4010020500200206402002005
:103DC00028020020AC010020B0010020A801002042
:103DD000A0010020FE4804601020FD4948604020FA
:103DE00088600020C8604FF4806008610846FDF7D5
:103DF00001FA1020FFF76FFE064616B13046BDE807
:103E0000F0814FF0FF30F34908600846446090208D
:103E100088600220C86000200861012048610846CF
:103E2000FDF711FAEA4805601120E9494860402091
:103E300088600020C8604FF4806008610846FDF784
:103E4000D9F91120FFF747FE06460EB13046D6E7F6
:103E500001210802FDF7BEF90120FDF7C8F921464E
:103E60003846FFF7E2FD3046C9E72DE9F0418046CC
:103E70000D4614461E4600270020D7490870D74932
:103E800008600120D64908600020D649C862D6489B
:103E90000068022801D104026D0ACD480460102098
:103EA000CB494860402088600020C8604FF48060A3
:103EB00008610846FDF79EF91020FFF70CFE074643
:103EC00017B13846BDE8F0814FF0FF30C1490860B6
:103ED00006FB04F04860902088600220C860002043
:103EE0000861012048610846FDF7ADF9B848056052
:103EF0001220B7494860402088600020C8604FF415
:103F0000806008610846FDF775F91220FFF7E3FDB0
:103F100007460FB13846D5E701210802FDF75AF9E7
:103F20000120FDF764F906FB04F14046FFF77DFD33
:103F30003846C7E710B5002400BFFFF771FD30B960
:103F4000A648006818B9A44800780028F5D0A2480F
:103F5000007810B1A048007810BD2046FCE72DE99C
:103F6000F04107460D461446002600209A49087085
:103F70009A4908609A4908609A49C8629A48006854
:103F8000022801D104026D0A914804601020904972
:103F90004860402088600020C8604FF4806008615D
:103FA0000846FDF727F91020FFF795FD064616B1E4
:103FB0003046BDE8F0818648056018208449486095
:103FC000402088600020C8604FF480600861084687
:103FD000FDF710F91820FFF77EFD06460EB13046BA
:103FE000E7E74FF0FF307B490860084644609020C7
:103FF00088600020C8600861012048610846FDF71C
:1040000022F901210802FDF7E5F821463846FFF7BD
:1040100037FD0120FDF7EBF83046CAE72DE9F843FC
:1040200080460F4615461E460024002000906A492F
:1040300008706A49086001206949086000206949E0
:10404000C86269480068022801D105027F0A6048F9
:10405000056010205E494860402088600020C860EC
:104060004FF4806008610846FDF7C4F81020FFF7A0
:1040700032FD044614B12046BDE8F8835B48008851
:1040800000045349086037204860402088600020C1
:10409000C8604FF4806008610846FDF7ABF8372030
:1040A000FFF719FD04460CB12046E5E748480660D5
:1040B000172047494860402088600020C8604FF4BE
:1040C000806008610846FDF795F81720FFF703FDAB
:1040D00004460CB12046CFE73D48076019203C4913
:1040E0004860402088600020C8604FF4806008610C
:1040F0000846FDF77FF81920FFF7EDFC04460CB1E8
:104100002046B9E74FF0FF303249086006FB05F062
:104110004860902088600020C860086101204861E4
:104120000846FDF790F801210802FDF753F8012039
:10413000FDF75DF806FB05F14046FFF7A1FC2046C0
:104140009AE710B5002400BFFFF76AFC30B9234896
:10415000006818B9204800780028F5D01E4800787B
:1041600010B11D48007810BD40F2FF50FDF7C3F8B4
:104170002046F8E71B48406B00F4405008B101208E
:1041800070470020FCE710B5002400201549886026
:1041900040F24C40C8600C20FFF79DFC04462046CE
:1041A00010BD7CB5044600250020019000900F480A
:1041B00000880004064908600D204860402088609F
:1041C0000020C8604FF480600861084610E00000DD
:1041D0005002002064020020AC010020B001002049
:1041E000A801002000800140A0010020A4010020BF
:1041F000FDF700F8FA48406B009002E0F848406B89
:104200000090009800F045000028F7D0009800F0DA
:10421000040028B103250420FDF76DF828467CBD75
:10422000009800F0010028B101250120FDF763F896
:104230002846F4E7FCF7F8FF009000980D2802D01C
:1042400010252846EBE740F2FF50FDF754F8002018
:10425000FCF7EEFF01900198C0F343202070E14984
:104260000198084008B92846D9E7019800F00040B5
:1042700008B11C20D3E7019800F0804008B1092064
:10428000CDE7019800F0005008B10A20C7E7019877
:1042900000F0805008B10B20C1E7019800F00060E9
:1042A00008B10C20BBE7019800F0806008B10D2038
:1042B000B5E7019800F0807008B10E20AFE70198D3
:1042C00000F4000008B10F20A9E7019800F4800075
:1042D00008B11020A3E7019800F4001008B11120E4
:1042E0009DE7019800F4801008B1122097E701982B
:1042F00000F4002008B1132091E7019800F4802019
:1043000008B114208BE7019800F4003008B11520A3
:1043100085E7019800F4803008B116207FE7019806
:1043200000F4004008B1172079E7019800F48040BC
:1043300008B1182073E7019800F4005008B1192063
:104340006DE7019800F0080008B11A2067E72846D9
:1043500065E72DE9FC4105460E46002400270020B4
:1043600001900090A0484068202101EA105018B93F
:1043700025242046BDE8FC8199484068C0B2801CD5
:104380009A49B1FBF0F001900020FCF751FF00F0DA
:10439000007010B10E242046ECE795480068022812
:1043A00001D16D0A760A9248006838B190480068D9
:1043B000012803D08E48006802282BD18D48056063
:1043C00020208C494860402088600020C8604FF45D
:1043D000806008610846FCF70DFF2020FFF77BFB9B
:1043E00004460CB12046C5E7824806602120814979
:1043F0004860402088600020C8604FF480600861F9
:104400000846FCF7F7FE2120FFF765FB04460CB1D8
:104410002046AFE70020774908602620486040200A
:1044200088600020C8604FF4806008610846FCF78F
:10443000E1FE2620FFF74FFB04460CB1204699E72A
:10444000002700E07F1C01988742FBD36846FFF7F6
:10445000A8FE044603E06846FFF7A3FE04463CB905
:104460009DF800000728F6D09DF800000628F2D03D
:1044700020467FE710B56048006801280BD1002076
:104480005749886040F24C40C8600C20FFF723FB7E
:104490005A49087002E00020584908704FF48070B3
:1044A000FCF736FF00214FF48070FCF793FE0120EB
:1044B000534908605148007810BD2DE9FC4107467A
:1044C0000D46002600240020009001900820494954
:1044D000086010204860402088600020C8604FF4C9
:1044E000806008610846FCF785FE1020FFF7F3FAAC
:1044F000044614B12046BDE8FC814248008800040F
:104500003C49086037204860402088600020C8602F
:104510004FF4806008610846FCF76CFE3720FFF717
:10452000DAFA04460CB12046E5E74FF0FF30364991
:10453000086008204860302088600220C8600020A1
:104540000861012048610846FCF77DFE00202949EA
:10455000086033204860402088600020C8604FF425
:10456000806008610846FCF745FE3320FFF7B3FA88
:1045700004460CB12046BEE70CE04FF40010FCF7F7
:10458000B0FE38B1FCF781FE4DF82600761C012EF6
:1045900000D906E01248406B40F22A61084000282A
:1045A000EBD000BF0820FCF79CFE28B10820FCF7E8
:1045B000A2FE042420469EE70220FCF792FE28B1CA
:1045C0000220FCF798FE0224204694E72020FCF706
:1045D00088FED8B12020FCF78EFE062420468AE70C
:1045E0000080014008E0FFFD08020020C0D4010067
:1045F000A001002050020020A8010020AC010020F2
:10460000B0010020A4010020640200204FF40070DB
:10461000FCF767FE30B14FF40070FCF76CFE072426
:10462000204668E740F2FF50FCF765FE0098000660
:10463000009901F47F4140EA0120009901F47F01D3
:1046400040EA1120009940EA116068600198000674
:10465000019901F47F4140EA0120019901F47F01B1
:1046600040EA1120019940EA11602860204642E7A3
:104670007CB505460024002000900190FCF7D8FD91
:1046800000F0007010B10E2420467CBDF649098868
:1046900088B26946FFF711FF04460CB12046F4E7E3
:1046A000012D36D1019800F4802000282ED0EE484C
:1046B00000880004ED490860372048604020886089
:1046C0000020C860A80208610846FCF793FD372067
:1046D000FFF701FA04460CB12046D6E70220E34971
:1046E000086006204860402088600020C8604FF4C1
:1046F000806008610846FCF77DFD0620FFF7EBF9B6
:1047000004460CB12046C0E72046BEE725242046DB
:10471000BBE7019800F4803078B3D34800880004E8
:10472000D249086037204860402088600020C86077
:104730004FF4806008610846FCF75CFD3720FFF706
:10474000CAF904460CB120469FE70020C74908601B
:1047500006204860402088600020C8604FF48060D8
:1047600008610846FCF746FD0620FFF7B4F9044649
:104770000CB1204689E7204687E7FFE7252420463D
:1047800083E70146002002E04910421CD0B2012913
:10479000FAD1704710B5B6A1B948FEF7F4F8B9A13F
:1047A000B748FEF7F0F8BC4890F84E0020B9BBA11E
:1047B000B348FEF7E8F844E0B74890F84E00012807
:1047C00004D1BEA1AE48FEF7DEF83AE0B24890F858
:1047D0004E00022804D1C1A1A948FEF7D4F830E068
:1047E000AD4890F84E00032804D1C3A1A448FEF7B9
:1047F000CAF826E0A84890F84E00042804D1C4A1C5
:104800009F48FEF7C0F81CE0A34890F84E0005282A
:1048100004D1C6A19A48FEF7B6F812E09E4890F877
:104820004E00062804D1C9A19548FEF7ACF808E06F
:10483000994890F84E00072803D1CDA19048FEF783
:10484000A2F8D2A18E48FEF79EF89348816C8C485E
:10485000FEF741F9D4A18A48FEF795F88E48416CDD
:104860008748FEF738F9D6A18548FEF78CF88A48C4
:10487000B0F84C108248FEF72EF9D5A18048FEF71B
:1048800082F8854890F82C107D48FEF724F9D7A1CE
:104890007B48FEF778F810BD70B504460025D54872
:1048A0000068032802D12725284670BDD14800683A
:1048B00038B1D0480068012803D0CE4800680228EB
:1048C0002ED1B4F5805F02D127252846EDE7B4F557
:1048D000006F14D10120FFF7CBFE054605BB012078
:1048E000C549087500200860486088604FF4006082
:1048F000C860002008610846FCF73CFC10E000207E
:10490000FFF7B6FE05465DB90120BB4908750020DA
:10491000086048608860C86008610846FCF72AFCA7
:104920002846C2E770B504460025504804600720B9
:104930004E494860402088600020C8604FF4806085
:1049400008610846FCF756FC0720FFF7C4F8054647
:10495000284670BD30B5014600200022A54B1B78CB
:1049600081F84E30404B1B88A1F84C30A34B1B689C
:104970001A0E93090B70C2F383034B7002F003030A
:104980008B709E4B1B68C3F30742CA709B4B1B88FE
:10499000C3F307220A71994B1A784A715B681A0EA1
:1049A0001301CB80954B5B68C3F30742CB8843EA86
:1049B0001213CB8002F00F030B72904B9B88C3F352
:1049C0000722D3094B72C2F380138B72C2F34013D8
:1049D000CB72C2F300130B7300234B73854B1B6820
:1049E0001BB1844B1B68012B3DD193071B0D0B6141
:1049F000824B1A790B6943EA82030B617F4B9B68F8
:104A00001A0E0B6943EA92130B61C2F3C2030B75D2
:104A100002F007034B75794B9B68C3F307425309B8
:104A20008B75C2F38203CB7593075B0F0B76734BC9
:104A30001B89C3F307220B7E43EAD2130B760B6963
:104A40005B1C4B640C7E4B6CA41C0125A5406B4386
:104A50004B644FF400738B640D7A4B6C0124AC40B3
:104A600063434B64EEE0CBE0A40100205002002041
:104A7000200D0A0A095344BFA8D0C5CFA20A0000DE
:104A800000380140200D0A2043617264547970653A
:104A900020697320A3BA2000B80100205344494F75
:104AA0005F5354445F43415041434954595F534419
:104AB0005F434152445F56315F3100005344494FD8
:104AC0005F5354445F43415041434954595F5344F9
:104AD0005F434152445F56325F3000005344494FB8
:104AE0005F484947485F43415041434954595F53E8
:104AF000445F4341524400005344494F5F4D554C7D
:104B000054494D454449415F43415244000000002F
:104B10005344494F5F5345435552455F44494749C4
:104B200054414C5F494F5F43415244005344494F05
:104B30005F484947485F53504545445F4D554C5485
:104B4000494D454449415F43415244005344494F14
:104B50005F5345435552455F4449474954414C5F73
:104B6000494F5F434F4D424F5F4341524400000065
:104B70005344494F5F484947485F43415041434987
:104B800054595F4D4D435F4341524400200D0A206C
:104B900043617264426C6F636B53697A6520697319
:104BA000203A202000000000200D0A20436172649A
:104BB000436170616369747920697320A3BA20002E
:104BC000200D0A20524341206973203A2020000022
:104BD000200D0A204D616E75666163747572657291
:104BE0004944206973203A2000000000200D0A0A81
:104BF00000000000A0010020380200200802002070
:104C0000F84B1B68022B1DD1F74B1A7993069B0AB0
:104C10000B61F54B9B681A0E0B6943EA02230B618B
:104C2000F14B9B68C3F307420B6913430B61EE4BD7
:104C30001B89C3F307220B695B1C5B024B644FF4B7
:104C400000738B64C2F3801301F8193F93065B0E67
:104C50004B70E54B1A7A4B7843EAD2134B7002F053
:104C60007F038B70E04BDB681A0ED309CB70C2F365
:104C700041130B71C2F382034B7193071B0F8B71AE
:104C8000D94BDB68C3F307428B7943EA92138B71EC
:104C9000C2F34013CB7100230B7202F001034B727D
:104CA000D14B9B89C3F30722D3098B72C2F38013C4
:104CB000CB72C2F340130B73C2F300134B73C2F3F6
:104CC00081038B7302F00303CB73C74B1A7B53082A
:104CD0000B7401234B74C54B1B681A0ECA74193927
:104CE000C24B1B68C3F307421402CC85BF4B1B8821
:104CF000C3F30722CB8D1343CB85BC4B1A78140624
:104D00000C635B681A0E0B6B43EA02440C63B74BEF
:104D10005B68C3F307420B6B43EA02240C63B34B9B
:104D20009B88C3F307220B6B13430B63AF4B1A79BA
:104D300034235A54AD4B9B681A0E35235A54AB4B4F
:104D40009B68C3F3074214068C63A84B1B89C3F30B
:104D500007228B6B43EA02448C63A44B1A7A8B6B59
:104D600043EA02248C63A14BDB681A0E8B6B13435E
:104D70008B639E4BDB68C3F307423C235B5C43EAD7
:104D800012143C235C5413071C0DCC87974B9B8952
:104D9000C3F30722CB8F1343CB87944B1A7B540862
:104DA00040235C54012441235C5430BD70B5002580
:104DB0008F48446B01E08E48446B04F045000028A6
:104DC000F9D004F0040028B103250420FCF793FA7D
:104DD000284670BD04F0010028B101250120FCF730
:104DE0008AFA2846F5E740F2FF50FCF784FA284695
:104DF000EFE72DE9F04106460F464FF000087C48EA
:104E0000456B01E07A48456B05F045000028F9D074
:104E100005F0040038B14FF003080420FCF76BFAEA
:104E20004046BDE8F08105F0010030B14FF00108C7
:104E30000120FCF760FA4046F3E7FCF7F5F9B042D1
:104E400003D04FF010084046EBE740F2FF50FCF76C
:104E500052FA0020FCF7ECF9044604F4604018B95B
:104E6000200C38804046DCE704F4005008B11320E1
:104E7000D7E704F4804008B11020D2E704F40040E2
:104E800008B10F20CDE74046CBE738B5002401201C
:104E90000090FCF79AF910B92524204638BD5148F6
:104EA0000068042828D00020524908600220486089
:104EB000C02088600020C8604FF480600861084608
:104EC000FCF798F9FFF772FF04460CB12046E5E7BE
:104ED0000020FCF7ADF9454908600420FCF7A8F96B
:104EE000424948600820FCF7A3F9404988600C203B
:104EF000FCF79EF93D49C8603A48006858B1394806
:104F00000068012807D037480068062803D03548D4
:104F10000068022816D10020364908600320486046
:104F2000402088600020C8604FF480600861084617
:104F3000FCF760F969460320FFF75BFF04460CB1FC
:104F40002046ABE72748006804282ED0BDF80000B3
:104F500029490860BDF800000004264908600920BE
:104F60004860C02088600020C8604FF480600861FD
:104F70000846FCF73FF9FFF719FF04460CB120463D
:104F80008CE70020FCF754F9174908600420FCF76F
:104F90004FF9154948600820FCF74AF91249886022
:104FA0000C20FCF745F91049C8600024204675E73D
:104FB00070B500250E48446B01E00D48446B04F0C9
:104FC00045000028F9D004F0040028B1032504208E
:104FD000FCF791F9284670BD40F2FF50FCF78BF9C1
:104FE0002846F8E7A001002008020020180200204F
:104FF0000080014050020020A401002070B500266E
:105000004FF480359C48446B02E06D1E9A48446B17
:1050100004F0450008B9002DF7D115B104F00400E3
:1050200028B103260420FCF766F9304670BD04F071
:10503000400028B100264020FCF75DF93046F5E736
:105040003046F3E770B500254FF4803400E0641E6D
:1050500024B18020FCF745F90028F8D014B90325C5
:10506000284670BD40F2FF50FCF745F92846F8E7A6
:105070002DE9F0410024002600250027A046B2209B
:105080007E4908750020086048608860C860086133
:105090000846FCF76FF80320FCF78CF80120FCF7BA
:1050A00086F800207649086048608860C8604FF440
:1050B000806008610846FCF79DF8FFF7C3FF0446CF
:1050C00014B12046BDE8F0814FF4D5706C490860FA
:1050D00008204860402088600020C8604FF480604D
:1050E00008610846FCF786F8FFF788FF04462CB9EC
:1050F0000120644908604FF0804812E000206049B8
:10510000086037204860402088600020C8604FF465
:10511000806008610846FCF76DF83720FEF7DBFC7D
:1051200004460020564908603720486040208860C7
:105130000020C8604FF4806008610846FCF75AF808
:105140003720FEF7C8FC0446002C4AD136E0002088
:105150004B49086037204860402088600020C860C4
:105160004FF4806008610846FCF744F83720FEF7EA
:10517000B2FC04460CB12046A4E7434848EA0000CC
:105180003F49086029204860402088600020C860AE
:105190004FF4806008610846FCF72CF8FFF708FF21
:1051A00004460CB120468DE70020FCF741F8064686
:1051B000012080EAD67080F001076D1C1FB94FF600
:1051C000FF708542C3D34FF6FF70854202D31B2484
:1051D000204677E706F08040061E02D002202949CB
:1051E000086020466EE710B500242848007838B9DA
:1051F000FEF7C0FBFEF7DFFBFEF7EFFBFBF7ACFFB4
:10520000FFF736FF04460CB1204610BDFFF73DFE08
:1052100004460CB12046F8E7012018490875002023
:10522000086048608860C86008610846FBF7A2FF14
:105230001CB91748FFF78EFB044634B91449B1F87E
:105240004C100804FFF76EFB044624B94FF40060CD
:10525000FFF722FB04460D48007820B9FFF79AFAC1
:1052600001200A4908702046CFE710B5002400202D
:10527000FBF7A0FF204610BD00800140380200204F
:1052800050020020A001002000001080B401002086
:10529000B8010020F0B480EA0102D40F4200B2EB62
:1052A000410F02D20246084611464A0042D0C30DC1
:1052B000DDB2C1F3C752AD1A202D35DAC1F31601A4
:1052C00041F4000204B15242C5F1200602FA06F18F
:1052D0002A411044B3EBD05F23D0C4B1012DA0EB21
:1052E000C35009DCF0BC4FF0004202EAC352DBB20B
:1052F00000F5000000F06CBA400000F1807000EB97
:10530000C350A0F1807040EAD170490009E049081B
:1053100041EAC071A0EBC35000F50000400800EB6B
:10532000C350F0BC00F04BBA6142012202EB4101D4
:10533000001BF6E7F0BC704781F00041AAE780F05F
:105340000040A7E780EA010210B502F000434000E8
:1053500022D04A001FD0010E01EB1261C0F35600AB
:10536000C2F3560240F4000042F40002A0FB022007
:1053700000047F39140400D0401C50EA124001D4CC
:105380004000491EC2B20C0604EBD010401C40087D
:10539000802A02D003E0002010BD20F00100002987
:1053A00000DA0020184310BD30B480EA010202F098
:1053B000004530F0004221F0004013D090B1C30D01
:1053C000D40DC2F31601C0F31600E41A41F4000133
:1053D00040F400027D34914201D3641C00E0490096
:1053E000002C02DA30BC002070474FF4000000238C
:1053F000914201D3891A034340084FEA4101F7D192
:1054000051B1914202D14FF0004105E002D24FF07C
:10541000010101E06FF0010103EBC450284430BCEE
:1054200000F0CDB92DE9FE4F804681EA0300C00FA0
:105430000C46009021F0004123F00045B8EB02003B
:10544000A94105D24046214690461C460B460246DD
:1054500023F00040104347D0270DC7F30A00C3F3E1
:105460000A510290401A019040286BDAC3F31300EE
:1054700040F4801B0098924620B10023D2EB030A2F
:1054800063EB0B0B01985946C0F14002504600F007
:1054900065F906460D4650465946019A00F07DF9D9
:1054A00010EB08006141002487EA115284EAE77397
:1054B0001A4340D0009A62B3019A012A4FEA075278
:1054C00015DC001B61EB02014FF0004202EA0752BB
:1054D000CDE90042001C41F5801132462B4600F018
:1054E000B4F903B0BDE8F08F40462146F9E7001B50
:1054F00061EB0201001C41F5801300185B4120188C
:10550000A2F5001747EB030140EAD570B6196D41CB
:1055100011E06D084FEA360645EAC0754FEA0752BA
:10552000001B61EB0201001C41F5801149084FEAA4
:1055300030000019514132462B4603B0BDE8F04F10
:1055400000F074B90098012240000023D0EB020261
:1055500063EBE073009821464FEAE074B8EB00007B
:1055600061EB0401E9E783F000435BE781F0004170
:1055700058E72DE9F04D81EA030404F0004B21F0D7
:10558000004514464FF0000A23F0004150EA05029E
:1055900020D054EA01021DD0C5F30A570246C5F3D4
:1055A0001303C1F31300C1F30A5640F4801543F40A
:1055B0008013A7EB0608101BD64608F2FD3873EBE4
:1055C000050002D308F1010801E092185B41B8F12F
:1055D000000F03DA00200146BDE8F08D00204FF4F3
:1055E0008011064684460EE0171B73EB050705D3B2
:1055F000121B63EB050306434CEA010C49084FEA12
:10560000300092185B4150EA0107EDD152EA0300E5
:1056100012D082EA040083EA0501084305D0101B7A
:10562000AB4106D20122002306E000224FF00043E6
:1056300002E06FF0010253101AEB06004CEB085128
:1056400010EB0A0041EB0B01BDE8F04D00F0EEB8A5
:10565000C10F80EAE0700844CA079623002100F0D9
:10566000B7B80EB5C10F80EAE0700844CA07002140
:1056700040F233438DE80E000A460B4600F0E5F891
:1056800003B000BD00F0004220F00040C10DC0F3A7
:10569000160040F400007F2901DA002070479629A7
:1056A00003DCC1F19601C84001E096398840002A28
:1056B000F4D040427047C1F30A5210B5C1F3130150
:1056C00040F2FF3341F480119A4201DA002010BD0C
:1056D00040F233439A42A2F2334203DC524200F0DA
:1056E0004CF810BD904010BD00F0004230F000407A
:1056F0000AD0C10D01F56071C0F3160042EA0151F4
:10570000C20840071143704700200146704701F06E
:10571000004330B421F0004150EA010206D00A0DE6
:10572000A2F56072C1F31301002A02DC30BC002034
:105730007047440F44EAC104C100E01830BC00EBDC
:10574000C25000F03CB80000002801DBC0F100406E
:10575000002901DBC1F1004188427047202A04DBA7
:10576000203A00FA02F1002070479140C2F1200374
:1057700020FA03F3194390407047202A04DB203AB3
:1057800021FA02F00021704721FA02F3D040C2F161
:1057900020029140084319467047202A06DBCB17A8
:1057A000203A41FA02F043EAE07306E041FA02F3DC
:1057B000D040C2F1200291400843194670470029A9
:1057C000A8BF7047401C490008BF20F00100704787
:1057D00010B4B0FA80FC00FA0CF050EA010404BFE7
:1057E00010BC704749B1CCF1200421FA04F411FA3D
:1057F0000CF118BF012121430843A3EB0C01CB1D81
:105800004FEA00614FEA102042BF002010BC7047F1
:1058100000EBC35010440029A4BF10BC7047401CCB
:10582000490008BF20F0010010BC704710B5141EDD
:1058300073F1000408DA401C41F1000192185B4149
:105840001A4301D120F0010010BD2DE9F04D924620
:105850009B4611B1B1FA81F202E0B0FA80F2203237
:105860009046FFF77BFF04460F4640EA0A0041EAF4
:105870000B0153465A46084313D0114653EA010020
:1058800019D0C8F140025046FFF777FF05460E4693
:10589000504659464246FFF761FF084305D00120B4
:1058A00004E020463946BDE8F08D0020054346EA75
:1058B000E0762C4337430A986305E40AA0EB08001E
:1058C0000022FD0A44EA47540A3002D5002001466E
:1058D000E9E7010510196941DDE908450019694149
:1058E000BDE8F04DA2E70000064C074D06E0E06879
:1058F00040F0010394E8070098471034AC42F6D317
:10590000FAF71AFC80590008A059000870B58C18E5
:1059100010F8015B15F0070301D110F8013B2A11C3
:1059200006D110F8012B03E010F8016B01F8016BB0
:105930005B1EF9D12B0705D40023521E0DD401F8AC
:10594000013BFAE710F8013BCB1A921C03E013F875
:10595000015B01F8015B521EF9D5A142D8D30020AA
:1059600070BD02E008C8121F08C1002AFAD17047B2
:105970007047002001E001C1121F002AFBD17047CF
:10598000A059000800000020B80100000C590008D0
:10599000C4590008B8010020C8040000725900086A
:1059A0001184A24A04680901020304060708090CCD
:1059B0006910052602040608032E4042092E300114
:0459C000FFB1000033
:0400000508000131BD
:00000001FF
